:020000000F28C7
:10000800DE00030E8312AB000408AC000A08AD0042
:100018005F08AE00BE2910288312A001A101A20129
:10002800A301A401A501A601A701A80183014929EB
:100038008312AA002A08A70005122130A900A90BDB
:1000480023288312271829282C28831205162E28DE
:10005800831205122130A900A90B30288312A71892
:1000680036283928831205163B28831205122130B9
:10007800A900A90B3D288312271943284628831273
:1000880005164828831205122130A900A90B4A2811
:100098008312A7195028532883120516552883124E
:1000A80005122130A900A90B57288312271A5D28A9
:1000B8006028831205166228831205122130A900D0
:1000C800A90B64288312A71A6A286D2883120516BB
:1000D8006F28831205122130A900A90B71288312F9
:1000E800271B77287A28831205167C288312051285
:1000F8002130A900A90B7E288312A71B84288728F2
:10010800831205168928831205122130A900A90B2C
:100118008B288312051608008312851D94289528BC
:10012800ED280630A900A90B9728000083122208A1
:100138002304031DA028A128B0282808031DA528EA
:10014800A628B028851DA928AA28B028A801A80A89
:100158000130A2000030A30022082304031DB528A3
:10016800B628C52828080319BA28BB28C528851D1C
:10017800BE28BF28C52885128519C328C428C028C9
:10018800A801220823040319CA28CB28D528851DCD
:10019800CE28CF28D5280130A2070318A30A00309B
:1001A800A307220823040319DA28DB28EF280630DE
:1001B8002802031CE028E128E428A801A80AE82866
:1001C8000130DF005F08A8070130A2000030A3005B
:1001D800EF28A201A301080021308312A900A90B6E
:1001E800F32883122610851CFA282614213083123E
:1001F800A900A90BFD288312A610851C0429A614A2
:1002080021308312A900A90B072983122611851C06
:100218000E29261521308312A900A90B1129831252
:10022800A611851C1829A61521308312A900A90B2F
:100238001B2983122612851C222926162130831297
:10024800A900A90B25298312A612851C2C29A616FC
:1002580021308312A900A90B2F2983122613851C8C
:100268003629261721308312A900A90B39298312B0
:10027800A613851C4029A617633083122606031D82
:10028800462947294829A8010800EF217429851221
:10029800742920308506AA30AF00AF0B5129000021
:1002A8007429203085065530AF00AF0B59297429C1
:1002B800203085062A30AF00AF0B60290000742972
:1002C800203085061530AF00AF0B6829742920301F
:1002D80085060A30AF00AF0B6F2900007429A8010A
:1002E80083122808003A03194B29013A03194D29AA
:1002F800033A03195529013A03195C29073A0319E6
:100308006429013A03196B2973290F2846301C20E8
:100318003D301C20A32931301C20B52932301C2047
:10032800B52934301C20B52938301C20B529313086
:100338001C2036301C20B52930301C20B5298312EA
:100348002808013A03198F29033A03199229013A17
:1003580003199529073A03199829013A03199B2982
:10036800A0294B301C2048301C207A301C200D302E
:100378001C2008008316961CC229C329CB29831286
:100388008518C729C829CB29F020831696100B1D7C
:10039800CE29CF29E4292322103083122502031CF9
:1003A800D629D729DD298A218312A50190200B227D
:1003B800E1290130DF005F08A507831281010B11D5
:1003C80083122E082D088A002C0884002B0E830027
:1003D800DE0E5E0E09000A30831685008312850141
:1003E80005168316811281110115811401148312D7
:1003F80081018B168B170B128B140B138B1583161D
:10040800161096141611961116129612080001303D
:100418008312A0070318A10A0030A10700302102A7
:100428001E3003192002031C1A2A1B2A1C2AA801A1
:10043800851D1F2A202A222AA001A1010800831253
:10044800240828060319292A2A2A2E2A2808A4005B
:0804580005152F2A051108000B
:02400E00D431AB
:00000001FF
